S01F000041544D6567613132385261696C776179436F6E74726F6C2E73726563A1
S113000045C0000053C0000051C000004FC00000B4
S11300104DC000004BC0000049C0000047C00000B4
S113002045C0000043C0000041C000003FC00000C4
S11300303DC000003BC0000039C0000037C00000D4
S113004035C0000033C0000031C000002FC00000E4
S11300502DC000002BC0000029C0000027C00000F4
S113006025C0000023C0000021C000001FC0000004
S11300701DC000001BC0000019C0000017C0000014
S113008015C0000013C0000011C0000011241FBEE1
S1130090CFEFD0E1DEBFCDBF21E0A0E0B1E001C0F1
S11300A01D92A030B207E1F706D033C0A9CF17B82C
S11300B087E886B908952BD005D084E690E09BBDEF
S11300C08ABDFFCF8FB5886A8FBDEBE8F0E08081F1
S11300D0886A80838FB582608FBD8EB588618EBD3E
S11300E0808182608083EAE8F0E080818861808397
S11300F08EB581608EBD8081816080838FEF90E0BA
S113010097BD86BD90938100809380000895CFCFE2
S10901100895F894FFCFEE
S9030000FC
