S01F000041544D6567613132385261696C776179436F6E74726F6C2E73726563A1
S113000045C0000053C0000051C000004FC00000B4
S11300104DC000004BC0000049C0000047C00000B4
S113002045C0000043C0000041C000003FC00000C4
S11300303DC000003BC0000039C00000FEC000000D
S113004035C0000033C0000031C000002FC00000E4
S11300502DC000002BC0000029C0000027C00000F4
S113006025C0000023C0000021C000001FC0000004
S11300701DC000001BC0000019C0000017C0000014
S113008015C0000013C0000011C0000011241FBEE1
S1130090CFEFD0E1DEBFCDBF21E0A0E0B1E001C0F1
S11300A01D92A531B207E1F71ED0EAC3A9CF17B854
S11300B087E886B9089597B1907E892B87B9369AD7
S11300C03699FECF84B195B108950895D098D1980A
S11300D0D298D398D498D598D698D798A798A69814
S11300E0A598A498089510D07DD0F0DFE0DFEDDF6F
S11300F0CFD0A0D12FEF80E792E0215080409040F4
S1130100E1F700C00000F5CFBB9ABC9A169A179A83
S1130110B89ABA9A0895CF93C82FCB01BA0120E0B8
S113012030EC4FE754E449D366D2C230A9F048F426
S1130130CC2379F0C130F1F47093790060937800A6
S113014019C0C43099F068F0C530A1F47BBD6ABD14
S113015011C079BD68BD0EC070938700609386009E
S113016009C0709385006093840004C07093830079
S113017060938200CF91089561111AC0823081F09A
S113018028F4882349F0813049F00895843061F0DF
S113019048F0853059F00895C39A0895C49A089593
S11301A01E9A08951F9A0895C09A0895C29A0895B0
S11301B0823081F028F4882349F0813049F0089591
S11301C0843061F048F0853059F00895C39808955B
S11301D0C49808951E9808951F980895C098089586
S11301E0C298089587B3806E87BB82B1886382B951
S11301F08FB5886A8FBDEBE8F0E08081886A8083E0
S11302008FB582608FBD8EB588618EBD808182601E
S11302108083EAE8F0E08081886180838EB5816024
S11302208EBD8081816080838FEF93E097BD86BD12
S1130230909381008093800008951F920F920FB6CF
S11302400F9211240BB60F922F933F934F935F930A
S11302506F937F938F939F93AF93BF93EF93FF938A
S1130260E0910001F09101010995FF91EF91BF9197
S1130270AF919F918F917F916F915F914F913F913A
S11302802F910F900BBE0F900FBE0F901F901895DB
S11302908898909A0895BF92CF92DF92EF92FF923E
S11302A00F931F93CF93DF9389E0E82E81E0F82E1C
S11302B0C3E0D1E015E0C12C92E0D92E02E0BB24CA
S11302C0B394812FF8DEF701C192D1927F01811599
S11302D0F2E09F0710F4B88206C08115924011F035
S11302E0088301C01882115021961F3F51F7DF91F6
S11302F0CF911F910F91FF90EF90DF90CF90BF901F
S11303000895FF920F931F93CF93DF9303E011E0BF
S1130310C9E0D1E085E0F82E8F2DCDDEF8012081F3
S1130320213041F4288139818217930778F0998329
S113033088830AC0223051F428813981281739076B
S113034028F099838883F801108202C099838883F6
S1130350FA940F5F1F4F2296FFEFFF12DDCFDF915C
S1130360CF911F910F91FF900895CF92DF92EF925A
S1130370FF920F931F93CF9309E011E0C0E0F801BF
S1130380619171918F0180E090E061D120E030E0D3
S113039040E054E45FD020E030E040E05BE30DD285
S11303A06B017C012DEC3CEC4CE45DEBB8D087FF99
S11303B013C0C701B601905826E636E646EA5FE365
S11303C0B2D02AE939E949E95EE345D0AB01BC0181
S11303D08C2FA1DE61E01AC02DEC3CEC4CE45DE313
S11303E0C701B601E6D11816A4F426E636E646EAB5
S11303F05FE3C701B60197D02AE939E949E95EE329
S11304002AD0AB01BC018C2F86DE60E08C2FB4DED9
S113041005C040E050E0BA018C2F7DDECF5FC630CE
S113042009F0ADCFCF911F910F91FF90EF90DF9026
S1130430CF90089580910201809908C0811104C071
S113044081E08093020127DF5CDF8FCF811110925E
S1130450020108955058BB27AA270ED070C161D15C
S113046030F066D120F031F49F3F11F41EF456C1F0
S11304700EF4E095E7FB4CC1E92F72D180F3BA1773
S1130480620773078407950718F071F49EF58AC113
S11304900EF4E0950B2EBA2FA02D0B01B90190019B
S11304A00C01CA01A0011124FF27591B99F0593FDF
S11304B050F4503E68F11A16F040A22F232F342F27
S11304C04427585FF3CF469537952795A795F04075
S11304D05395C9F77EF41F16BA0B620B730B840B8A
S11304E0BAF09150A1F0FF0FBB1F661F771F881F42
S11304F0C2F70EC0BA0F621F731F841F48F487959A
S113050077956795B795F7959E3F08F0B3CF939588
S1130510880F08F09927EE0F979587950895D4D002
S113052008F481E008950CD00AC102D140F0F9D05A
S113053030F021F45F3F19F0EBC0511134C1EEC02B
S11305400FD198F39923C9F35523B1F3951B550B98
S1130550BB27AA2762177307840738F09F5F5F4F92
S1130560220F331F441FAA1FA9F333D00E2E3AF0D3
S1130570E0E830D091505040E695001CCAF729D0ED
S1130580FE2F27D0660F771F881FBB1F261737073C
S11305904807AB07B0E809F0BB0B802DBF01FF276C
S11305A093585F4F2AF09E3F510568F0B1C0FBC0DD
S11305B05F3FECF3983EDCF3869577956795B795A6
S11305C0F7959F5FC9F7880F911D9695879597F9C1
S11305D00895E1E0660F771F881FBB1F621773073A
S11305E08407BA0720F0621B730B840BBA0BEE1F4F
S11305F088F7E0950895BCD088F09F5790F0B92F04
S11306009927B751A0F0D1F0660F771F881F991F63
S11306101AF0BA95C9F712C0B13081F0C3D0B1E075
S11306200895C0C0672F782F8827B85F39F0B93F85
S1130630CCF3869577956795B395D9F73EF4909565
S11306408095709561957F4F8F4F9F4F0895E894E3
S113065009C097FB3EF490958095709561957F4F06
S11306608F4F9F4F9923A9F0F92F96E9BB279395B4
S1130670F695879577956795B795F111F8CFFAF4C4
S1130680BB0F11F460FF1BC06F5F7F4F8F4F9F4FF5
S113069016C0882311F096E911C0772321F09EE853
S11306A0872F762F05C0662371F096E8862F70E0B9
S11306B060E02AF09A95660F771F881FDAF7880F93
S11306C09695879597F90895990F0008550FAA0BE9
S11306D0E0E8FEEF16161706E807F907C0F0121651
S11306E01306E407F50798F0621B730B840B950B54
S11306F039F40A2661F0232B242B252B21F40895A9
S11307000A2609F4A140A6958FEF811D811D089545
S113071097F99F6780E870E060E008959FEF80ECB0
S1130720089500240A941616170618060906089553
S113073000240A9412161306140605060895092EB9
S11307400394000C11F4882352F0BB0F40F4BF2B28
S113075011F460FF04C06F5F7F4F8F4F9F4F089568
S113076057FD9058440F551F59F05F3F71F047955E
S1130770880F97FB991F61F09F3F79F08795089543
S1130780121613061406551FF2CF4695F1DF08C062
S1130790161617061806991FF1CF8695710561057F
S11307A008940895E894BB2766277727CB0197F927
S11307B008958ADF08F48FEF08950BD0C0CFB1DF1E
S11307C028F0B6DF18F0952309F0A2CFA7CF1124A3
S11307D0EACFC6DFA0F3959FD1F3950F50E0551FE4
S11307E0629FF001729FBB27F00DB11D639FAA2782
S11307F0F00DB11DAA1F649F6627B00DA11D661FD1
S1130800829F2227B00DA11D621F739FB00DA11DF1
S1130810621F839FA00D611D221F749F3327A00DAB
S1130820611D231F849F600D211D822F762F6A2F47
S113083011249F5750408AF0E1F088234AF0EE0FCC
S1130840FF1FBB1F661F771F881F91505040A9F7D9
S11308509E3F510570F05CCFA6CF5F3FECF3983E0E
S1130860DCF3869577956795B795F795E7959F5F40
S1130870C1F7FE2B880F911D9695879597F90895DA
S1070880F894FFCF16
S9030000FC
